{
  "contractName": "Bank",
  "abi": [
    {
      "inputs": [
        {
          "internalType": "contract Token",
          "name": "_token",
          "type": "address"
        }
      ],
      "stateMutability": "nonpayable",
      "type": "constructor"
    },
    {
      "anonymous": false,
      "inputs": [
        {
          "indexed": true,
          "internalType": "address",
          "name": "borrower",
          "type": "address"
        },
        {
          "indexed": false,
          "internalType": "uint256",
          "name": "amount",
          "type": "uint256"
        }
      ],
      "name": "Borrowed",
      "type": "event"
    },
    {
      "anonymous": false,
      "inputs": [
        {
          "indexed": true,
          "internalType": "address",
          "name": "sender",
          "type": "address"
        },
        {
          "indexed": false,
          "internalType": "uint256",
          "name": "amount",
          "type": "uint256"
        }
      ],
      "name": "Deposited",
      "type": "event"
    },
    {
      "anonymous": false,
      "inputs": [
        {
          "indexed": true,
          "internalType": "address",
          "name": "returner",
          "type": "address"
        },
        {
          "indexed": true,
          "internalType": "address",
          "name": "receiver",
          "type": "address"
        },
        {
          "indexed": false,
          "internalType": "uint256",
          "name": "amount",
          "type": "uint256"
        }
      ],
      "name": "Returned",
      "type": "event"
    },
    {
      "anonymous": false,
      "inputs": [
        {
          "indexed": true,
          "internalType": "address",
          "name": "sender",
          "type": "address"
        },
        {
          "indexed": false,
          "internalType": "uint256",
          "name": "amount",
          "type": "uint256"
        }
      ],
      "name": "Withdrawed",
      "type": "event"
    },
    {
      "inputs": [
        {
          "internalType": "address",
          "name": "",
          "type": "address"
        }
      ],
      "name": "borrowers",
      "outputs": [
        {
          "internalType": "uint256",
          "name": "",
          "type": "uint256"
        }
      ],
      "stateMutability": "view",
      "type": "function",
      "constant": true
    },
    {
      "inputs": [
        {
          "internalType": "address",
          "name": "",
          "type": "address"
        }
      ],
      "name": "depositedEthereum",
      "outputs": [
        {
          "internalType": "uint256",
          "name": "",
          "type": "uint256"
        }
      ],
      "stateMutability": "view",
      "type": "function",
      "constant": true
    },
    {
      "inputs": [],
      "name": "deposit",
      "outputs": [],
      "stateMutability": "payable",
      "type": "function",
      "payable": true
    },
    {
      "inputs": [],
      "name": "withdraw",
      "outputs": [],
      "stateMutability": "nonpayable",
      "type": "function"
    },
    {
      "inputs": [
        {
          "internalType": "uint256",
          "name": "amount",
          "type": "uint256"
        }
      ],
      "name": "borrow",
      "outputs": [],
      "stateMutability": "payable",
      "type": "function",
      "payable": true
    },
    {
      "inputs": [
        {
          "internalType": "uint256",
          "name": "amount",
          "type": "uint256"
        }
      ],
      "name": "returnBorrowedMoney",
      "outputs": [],
      "stateMutability": "payable",
      "type": "function",
      "payable": true
    },
    {
      "inputs": [],
      "name": "getKokoTokenBalance",
      "outputs": [
        {
          "internalType": "uint256",
          "name": "",
          "type": "uint256"
        }
      ],
      "stateMutability": "nonpayable",
      "type": "function"
    }
  ],
  "bytecode": "0x608060405234801561001057600080fd5b506040516107873803806107878339818101604052602081101561003357600080fd5b5051600080546001600160a01b039092166001600160a01b0319909216919091179055610722806100656000396000f3fe6080604052600436106100705760003560e01c8063adb7cf7d1161004e578063adb7cf7d146100e6578063bf5d50c414610103578063c5ebeaec14610136578063d0e30db01461015357610070565b80630e393a1614610075578063274e1548146100ba5780633ccfd60b146100cf575b600080fd5b34801561008157600080fd5b506100a86004803603602081101561009857600080fd5b50356001600160a01b031661015b565b60408051918252519081900360200190f35b3480156100c657600080fd5b506100a861016d565b3480156100db57600080fd5b506100e46101ea565b005b6100e4600480360360208110156100fc57600080fd5b5035610324565b34801561010f57600080fd5b506100a86004803603602081101561012657600080fd5b50356001600160a01b03166104e9565b6100e46004803603602081101561014c57600080fd5b50356104fb565b6100e46105f8565b60026020526000908152604090205481565b60008054604080516370a0823160e01b815230600482015290516001600160a01b03909216916370a0823191602480820192602092909190829003018186803b1580156101b957600080fd5b505afa1580156101cd573d6000803e3d6000fd5b505050506040513d60208110156101e357600080fd5b5051905090565b336000908152600260205260409020546102355760405162461bcd60e51b815260040180806020018281038252602d81526020018061069a602d913960400191505060405180910390fd5b3360008181526002602052604080822054905190929183156108fc02918491818181858888f19350505050158015610271573d6000803e3d6000fd5b5033600081815260026020526040808220829055815481516340c10f1960e01b81526004810194909452600a602485015290516001600160a01b03909116926340c10f1992604480830193919282900301818387803b1580156102d357600080fd5b505af11580156102e7573d6000803e3d6000fd5b50506040805184815290513393507f6cca423c6ffc06e62a0acc433965e074b11c28479b0449250ce3ff65ac9e39fe92509081900360200190a250565b33600090815260016020526040902054610385576040805162461bcd60e51b815260206004820152601f60248201527f596f7520686176656e277420626f72726f776564206d6f6e6579207965742100604482015290519081900360640190fd5b600081116103c45760405162461bcd60e51b81526004018080602001828103825260268152602001806106c76026913960400191505060405180910390fd5b336000908152600160205260409020548111156104125760405162461bcd60e51b815260040180806020018281038252602e81526020018061066c602e913960400191505060405180910390fd5b60008054604080516323b872dd60e01b81523360048201523060248201526044810185905290516001600160a01b03909216926323b872dd926064808401936020939083900390910190829087803b15801561046d57600080fd5b505af1158015610481573d6000803e3d6000fd5b505050506040513d602081101561049757600080fd5b50503360008181526001602090815260409182902080548590039055815184815291513093927f9968789f2b0cc53b435225867b7d718de6eebc4b48088763c07439fb172865be92908290030190a350565b60016020526000908152604090205481565b33600090815260016020526040902054156105475760405162461bcd60e51b81526004018080602001828103825260248152602001806106486024913960400191505060405180910390fd5b60008054604080516340c10f1960e01b81523360048201526024810185905290516001600160a01b03909216926340c10f199260448084019382900301818387803b15801561059557600080fd5b505af11580156105a9573d6000803e3d6000fd5b505033600081815260016020908152604091829020869055815186815291519294507fac59582e5396aca512fa873a2047e7f4c80f8f55d4a06cb34a78a0187f62719f9350908290030190a250565b33600081815260026020908152604091829020805434908101909155825190815291517f2da466a7b24304f47e87fa2e1e5a81b9831ce54fec19055ce277ca2f39ba42c49281900390910190a256fe596f75206861766520616c726561647920626f72726f77656420736f6d65206d6f6e657943616e6e6f742072657475726e206d6f6e65792067726561746572207468616e2074686520626f72726f77656421506c65617365206465706f7369742066697273742c206265666f726520796f752063616e207769746864726177506c6561736520656e74657220616e20616d6f756e742067726561746572207468616e203021a2646970667358221220a828e894be8e11d57320c8e59bd9e8c88f02a5ed26b318e2080622c038df1f9364736f6c63430007060033",
  "immutableReferences": {},
  "source": "// SPDX-License-Identifier: MIT\npragma solidity >=0.6.0 <0.9.0;\n\nimport \"./Token.sol\";\n\ncontract Bank {\n    Token private token;\n\n    mapping(address => uint256) public borrowers;\n    mapping(address => uint256) public depositedEthereum;\n\n    event Deposited(address indexed sender, uint256 amount);\n    event Withdrawed(address indexed sender, uint256 amount);\n    event Borrowed(address indexed borrower, uint256 amount);\n    event Returned(address indexed returner, address indexed receiver, uint256 amount);\n\n    constructor(Token _token) {\n        token = _token;\n    }\n\n    function deposit() public payable {\n        depositedEthereum[msg.sender] = msg.value + depositedEthereum[msg.sender];\n\n        emit Deposited(msg.sender, msg.value);\n    }\n\n    function withdraw() public {\n        require(depositedEthereum[msg.sender] > 0, \"Please deposit first, before you can withdraw\");\n\n        uint256 etherToSend = depositedEthereum[msg.sender];\n\n        msg.sender.transfer(etherToSend);\n\n        depositedEthereum[msg.sender] = 0;\n\n        // send 10 tokens to the user who withdraw\n        token.mint(msg.sender, 10);\n\n        emit Withdrawed(msg.sender, etherToSend);\n    }\n\n    function borrow(uint256 amount) public payable {\n        require(borrowers[msg.sender] == 0, \"You have already borrowed some money\");\n\n        token.mint(msg.sender, amount);\n        borrowers[msg.sender] = amount;\n\n        emit Borrowed(msg.sender, amount);\n    }\n\n    function returnBorrowedMoney(uint256 amount) public payable {\n        require(borrowers[msg.sender] > 0, \"You haven't borrowed money yet!\");\n        require(amount > 0, \"Please enter an amount greater than 0!\");\n        require(amount <= borrowers[msg.sender], \"Cannot return money greater than the borrowed!\");\n\n        token.transferFrom(msg.sender, address(this), amount);\n        borrowers[msg.sender] = borrowers[msg.sender] - amount;\n\n        emit Returned(msg.sender, address(this), amount);\n    }\n\n    function getKokoTokenBalance() public returns (uint256) {\n        return token.balanceOf(address(this));\n    }\n}\n",
  "sourcePath": "/Users/kyosifov/learning-projects/ethereum-learning/contracts/Bank.sol",
  "compiler": {
    "name": "solc",
    "version": "0.7.6+commit.7338295f.Emscripten.clang"
  },
  "schemaVersion": "3.3.4",
  "updatedAt": "2021-03-23T19:00:45.961Z",
  "networkType": "ethereum",
  "devdoc": {
    "kind": "dev",
    "methods": {},
    "version": 1
  },
  "userdoc": {
    "kind": "user",
    "methods": {},
    "version": 1
  }
}