{
  "contractName": "Bank",
  "abi": [
    {
      "inputs": [
        {
          "internalType": "contract Token",
          "name": "_token",
          "type": "address"
        }
      ],
      "stateMutability": "nonpayable",
      "type": "constructor"
    },
    {
      "anonymous": false,
      "inputs": [
        {
          "indexed": true,
          "internalType": "address",
          "name": "sender",
          "type": "address"
        },
        {
          "indexed": false,
          "internalType": "uint256",
          "name": "amount",
          "type": "uint256"
        }
      ],
      "name": "Deposited",
      "type": "event"
    },
    {
      "anonymous": false,
      "inputs": [
        {
          "indexed": true,
          "internalType": "address",
          "name": "sender",
          "type": "address"
        },
        {
          "indexed": false,
          "internalType": "uint256",
          "name": "amount",
          "type": "uint256"
        }
      ],
      "name": "Withdrawed",
      "type": "event"
    },
    {
      "inputs": [
        {
          "internalType": "address",
          "name": "",
          "type": "address"
        }
      ],
      "name": "depositedEthereum",
      "outputs": [
        {
          "internalType": "uint256",
          "name": "",
          "type": "uint256"
        }
      ],
      "stateMutability": "view",
      "type": "function",
      "constant": true
    },
    {
      "inputs": [],
      "name": "deposit",
      "outputs": [],
      "stateMutability": "payable",
      "type": "function",
      "payable": true
    },
    {
      "inputs": [],
      "name": "withdraw",
      "outputs": [],
      "stateMutability": "nonpayable",
      "type": "function"
    }
  ],
  "bytecode": "0x608060405234801561001057600080fd5b506040516103003803806103008339818101604052602081101561003357600080fd5b5051600080546001600160a01b039092166001600160a01b031990921691909117905561029b806100656000396000f3fe6080604052600436106100345760003560e01c80630e393a16146100395780633ccfd60b1461007e578063d0e30db014610095575b600080fd5b34801561004557600080fd5b5061006c6004803603602081101561005c57600080fd5b50356001600160a01b031661009d565b60408051918252519081900360200190f35b34801561008a57600080fd5b506100936100af565b005b6100936101e9565b60016020526000908152604090205481565b336000908152600160205260409020546100fa5760405162461bcd60e51b815260040180806020018281038252602d815260200180610239602d913960400191505060405180910390fd5b3360008181526001602052604080822054905190929183156108fc02918491818181858888f19350505050158015610136573d6000803e3d6000fd5b5033600081815260016020526040808220829055815481516340c10f1960e01b81526004810194909452600a602485015290516001600160a01b03909116926340c10f1992604480830193919282900301818387803b15801561019857600080fd5b505af11580156101ac573d6000803e3d6000fd5b50506040805184815290513393507f6cca423c6ffc06e62a0acc433965e074b11c28479b0449250ce3ff65ac9e39fe92509081900360200190a250565b33600081815260016020908152604091829020805434908101909155825190815291517f2da466a7b24304f47e87fa2e1e5a81b9831ce54fec19055ce277ca2f39ba42c49281900390910190a256fe506c65617365206465706f7369742066697273742c206265666f726520796f752063616e207769746864726177a26469706673582212204635f1358dbb3fd84f3333fd95a582624b9941fe8ab315ed45494b1718d40d3964736f6c63430007060033",
  "immutableReferences": {},
  "source": "// SPDX-License-Identifier: MIT\npragma solidity >=0.6.0 <0.9.0;\n\nimport \"./Token.sol\";\n\ncontract Bank {\n    Token private token;\n\n    mapping(address => uint256) public depositedEthereum;\n\n    event Deposited(address indexed sender, uint256 amount);\n    event Withdrawed(address indexed sender, uint256 amount);\n\n    constructor(Token _token) {\n        token = _token;\n    }\n\n    function deposit() public payable {\n        depositedEthereum[msg.sender] = msg.value + depositedEthereum[msg.sender];\n\n        emit Deposited(msg.sender, msg.value);\n    }\n\n    function withdraw() public {\n        require(depositedEthereum[msg.sender] > 0, \"Please deposit first, before you can withdraw\");\n\n        uint256 etherToSend = depositedEthereum[msg.sender];\n\n        msg.sender.transfer(etherToSend);\n\n        depositedEthereum[msg.sender] = 0;\n\n        // send 10 tokens to the user who withdraw\n        token.mint(msg.sender, 10);\n\n        emit Withdrawed(msg.sender, etherToSend);\n    }\n}\n",
  "sourcePath": "/Users/kyosifov/learning-projects/ethereum-learning/contracts/Bank.sol",
  "compiler": {
    "name": "solc",
    "version": "0.7.6+commit.7338295f.Emscripten.clang"
  },
  "schemaVersion": "3.3.4",
  "updatedAt": "2021-03-01T17:41:58.959Z",
  "networkType": "ethereum",
  "devdoc": {
    "kind": "dev",
    "methods": {},
    "version": 1
  },
  "userdoc": {
    "kind": "user",
    "methods": {},
    "version": 1
  }
}