{
  "contractName": "Bank",
  "abi": [
    {
      "inputs": [
        {
          "internalType": "contract Token",
          "name": "_token",
          "type": "address"
        }
      ],
      "stateMutability": "nonpayable",
      "type": "constructor"
    },
    {
      "anonymous": false,
      "inputs": [
        {
          "indexed": true,
          "internalType": "address",
          "name": "borrower",
          "type": "address"
        },
        {
          "indexed": false,
          "internalType": "uint256",
          "name": "amount",
          "type": "uint256"
        }
      ],
      "name": "Borrowed",
      "type": "event"
    },
    {
      "anonymous": false,
      "inputs": [
        {
          "indexed": true,
          "internalType": "address",
          "name": "sender",
          "type": "address"
        },
        {
          "indexed": false,
          "internalType": "uint256",
          "name": "amount",
          "type": "uint256"
        }
      ],
      "name": "Deposited",
      "type": "event"
    },
    {
      "anonymous": false,
      "inputs": [
        {
          "indexed": true,
          "internalType": "address",
          "name": "sender",
          "type": "address"
        },
        {
          "indexed": false,
          "internalType": "uint256",
          "name": "amount",
          "type": "uint256"
        }
      ],
      "name": "Withdrawed",
      "type": "event"
    },
    {
      "inputs": [
        {
          "internalType": "address",
          "name": "",
          "type": "address"
        }
      ],
      "name": "borrowers",
      "outputs": [
        {
          "internalType": "bool",
          "name": "",
          "type": "bool"
        }
      ],
      "stateMutability": "view",
      "type": "function",
      "constant": true
    },
    {
      "inputs": [
        {
          "internalType": "address",
          "name": "",
          "type": "address"
        }
      ],
      "name": "depositedEthereum",
      "outputs": [
        {
          "internalType": "uint256",
          "name": "",
          "type": "uint256"
        }
      ],
      "stateMutability": "view",
      "type": "function",
      "constant": true
    },
    {
      "inputs": [],
      "name": "deposit",
      "outputs": [],
      "stateMutability": "payable",
      "type": "function",
      "payable": true
    },
    {
      "inputs": [],
      "name": "withdraw",
      "outputs": [],
      "stateMutability": "nonpayable",
      "type": "function"
    },
    {
      "inputs": [
        {
          "internalType": "uint256",
          "name": "amount",
          "type": "uint256"
        }
      ],
      "name": "borrow",
      "outputs": [],
      "stateMutability": "payable",
      "type": "function",
      "payable": true
    }
  ],
  "bytecode": "0x608060405234801561001057600080fd5b506040516104bc3803806104bc8339818101604052602081101561003357600080fd5b5051600080546001600160a01b039092166001600160a01b0319909216919091179055610457806100656000396000f3fe60806040526004361061004a5760003560e01c80630e393a161461004f5780633ccfd60b14610094578063bf5d50c4146100ab578063c5ebeaec146100f2578063d0e30db01461010f575b600080fd5b34801561005b57600080fd5b506100826004803603602081101561007257600080fd5b50356001600160a01b0316610117565b60408051918252519081900360200190f35b3480156100a057600080fd5b506100a9610129565b005b3480156100b757600080fd5b506100de600480360360208110156100ce57600080fd5b50356001600160a01b0316610263565b604080519115158252519081900360200190f35b6100a96004803603602081101561010857600080fd5b5035610278565b6100a9610381565b60026020526000908152604090205481565b336000908152600260205260409020546101745760405162461bcd60e51b815260040180806020018281038252602d8152602001806103f5602d913960400191505060405180910390fd5b3360008181526002602052604080822054905190929183156108fc02918491818181858888f193505050501580156101b0573d6000803e3d6000fd5b5033600081815260026020526040808220829055815481516340c10f1960e01b81526004810194909452600a602485015290516001600160a01b03909116926340c10f1992604480830193919282900301818387803b15801561021257600080fd5b505af1158015610226573d6000803e3d6000fd5b50506040805184815290513393507f6cca423c6ffc06e62a0acc433965e074b11c28479b0449250ce3ff65ac9e39fe92509081900360200190a250565b60016020526000908152604090205460ff1681565b3360009081526001602052604090205460ff16156102c75760405162461bcd60e51b81526004018080602001828103825260248152602001806103d16024913960400191505060405180910390fd5b60008054604080516340c10f1960e01b81523360048201526024810185905290516001600160a01b03909216926340c10f199260448084019382900301818387803b15801561031557600080fd5b505af1158015610329573d6000803e3d6000fd5b505033600081815260016020818152604092839020805460ff1916909217909155815186815291519294507fac59582e5396aca512fa873a2047e7f4c80f8f55d4a06cb34a78a0187f62719f9350908290030190a250565b33600081815260026020908152604091829020805434908101909155825190815291517f2da466a7b24304f47e87fa2e1e5a81b9831ce54fec19055ce277ca2f39ba42c49281900390910190a256fe596f75206861766520616c726561647920626f72726f77656420736f6d65206d6f6e6579506c65617365206465706f7369742066697273742c206265666f726520796f752063616e207769746864726177a264697066735822122009aef16c8a75173d8c15a4023227110b9a1109f37fe37e3c6afc98c9e7c4976364736f6c63430007060033",
  "immutableReferences": {},
  "source": "// SPDX-License-Identifier: MIT\npragma solidity >=0.6.0 <0.9.0;\n\nimport \"./Token.sol\";\n\ncontract Bank {\n    Token private token;\n\n    mapping(address => bool) public borrowers;\n    mapping(address => uint256) public depositedEthereum;\n\n    event Deposited(address indexed sender, uint256 amount);\n    event Withdrawed(address indexed sender, uint256 amount);\n    event Borrowed(address indexed borrower, uint256 amount);\n\n    constructor(Token _token) {\n        token = _token;\n    }\n\n    function deposit() public payable {\n        depositedEthereum[msg.sender] = msg.value + depositedEthereum[msg.sender];\n\n        emit Deposited(msg.sender, msg.value);\n    }\n\n    function withdraw() public {\n        require(depositedEthereum[msg.sender] > 0, \"Please deposit first, before you can withdraw\");\n\n        uint256 etherToSend = depositedEthereum[msg.sender];\n\n        msg.sender.transfer(etherToSend);\n\n        depositedEthereum[msg.sender] = 0;\n\n        // send 10 tokens to the user who withdraw\n        token.mint(msg.sender, 10);\n\n        emit Withdrawed(msg.sender, etherToSend);\n    }\n\n    function borrow(uint256 amount) public payable {\n        require(borrowers[msg.sender] == false, \"You have already borrowed some money\");\n\n        token.mint(msg.sender, amount);\n        borrowers[msg.sender] = true;\n\n        emit Borrowed(msg.sender, amount);\n    }\n}\n",
  "sourcePath": "/Users/kyosifov/learning-projects/ethereum-learning/contracts/Bank.sol",
  "compiler": {
    "name": "solc",
    "version": "0.7.6+commit.7338295f.Emscripten.clang"
  },
  "schemaVersion": "3.3.4",
  "updatedAt": "2021-03-06T08:39:27.025Z",
  "networkType": "ethereum",
  "devdoc": {
    "kind": "dev",
    "methods": {},
    "version": 1
  },
  "userdoc": {
    "kind": "user",
    "methods": {},
    "version": 1
  }
}