{
  "contractName": "ImageManager",
  "abi": [
    {
      "inputs": [
        {
          "internalType": "address",
          "name": "",
          "type": "address"
        },
        {
          "internalType": "bytes32",
          "name": "",
          "type": "bytes32"
        }
      ],
      "name": "images",
      "outputs": [
        {
          "internalType": "bytes32",
          "name": "id",
          "type": "bytes32"
        },
        {
          "internalType": "string",
          "name": "url",
          "type": "string"
        },
        {
          "internalType": "uint256",
          "name": "price",
          "type": "uint256"
        }
      ],
      "stateMutability": "view",
      "type": "function",
      "constant": true
    },
    {
      "inputs": [
        {
          "internalType": "address",
          "name": "",
          "type": "address"
        },
        {
          "internalType": "uint256",
          "name": "",
          "type": "uint256"
        }
      ],
      "name": "imagesToAccount",
      "outputs": [
        {
          "internalType": "bytes32",
          "name": "",
          "type": "bytes32"
        }
      ],
      "stateMutability": "view",
      "type": "function",
      "constant": true
    },
    {
      "inputs": [
        {
          "internalType": "string",
          "name": "_url",
          "type": "string"
        }
      ],
      "name": "addImage",
      "outputs": [],
      "stateMutability": "payable",
      "type": "function",
      "payable": true
    },
    {
      "inputs": [
        {
          "internalType": "bytes32",
          "name": "_imageId",
          "type": "bytes32"
        },
        {
          "internalType": "address",
          "name": "_sellerAddress",
          "type": "address"
        }
      ],
      "name": "buyImage",
      "outputs": [],
      "stateMutability": "payable",
      "type": "function",
      "payable": true
    },
    {
      "inputs": [],
      "name": "withdraw",
      "outputs": [],
      "stateMutability": "nonpayable",
      "type": "function"
    },
    {
      "inputs": [],
      "name": "getImagesCountForAccount",
      "outputs": [
        {
          "internalType": "uint256",
          "name": "imageCount",
          "type": "uint256"
        }
      ],
      "stateMutability": "view",
      "type": "function",
      "constant": true
    }
  ],
  "bytecode": "0x608060405234801561001057600080fd5b5061091a806100206000396000f3fe6080604052600436106100555760003560e01c8063166f17791461005a578063386daf91146101025780633ccfd60b1461012e5780636b33929014610143578063ce889b9114610202578063dc2b21641461024d575b600080fd5b6101006004803603602081101561007057600080fd5b81019060208101813564010000000081111561008b57600080fd5b82018360208201111561009d57600080fd5b803590602001918460018302840111640100000000831117156100bf57600080fd5b91908080601f016020809104026020016040519081016040528093929190818152602001838380828437600092019190915250929550610262945050505050565b005b6101006004803603604081101561011857600080fd5b50803590602001356001600160a01b031661038b565b34801561013a57600080fd5b50610100610682565b34801561014f57600080fd5b5061017c6004803603604081101561016657600080fd5b506001600160a01b0381351690602001356106c7565b6040518084815260200180602001838152602001828103825284818151815260200191508051906020019080838360005b838110156101c55781810151838201526020016101ad565b50505050905090810190601f1680156101f25780820380516001836020036101000a031916815260200191505b5094505050505060405180910390f35b34801561020e57600080fd5b5061023b6004803603604081101561022557600080fd5b506001600160a01b038135169060200135610778565b60408051918252519081900360200190f35b34801561025957600080fd5b5061023b6107a9565b600081343343406040516020018080602001858152602001846001600160a01b03168152602001838152602001828103825286818151815260200191508051906020019080838360005b838110156102c45781810151838201526020016102ac565b50505050905090810190601f1680156102f15780820380516001836020036101000a031916815260200191505b5060408051601f1981840301815282825280516020918201206060840183528084528184018c81523484860152336000908152600284528481208382528452939093208451815592518051919b5093995091975061035d965060018801955091909101925090506107bc565b5060409182015160029091015533600090815260016020818152928220805491820181558252919020015550565b60008060005b6001600160a01b0384166000908152600160205260409020548110156103fb576001600160a01b03841660009081526001602052604081208054839081106103d557fe5b90600052602060002001549050858114156103f257819350600192505b50600101610391565b50600181151514610446576040805162461bcd60e51b815260206004820152601060248201526f496d616765206e6f7420666f756e642160801b604482015290519081900360640190fd5b6001600160a01b038316600090815260026020818152604080842088855282528084208151606081018352815481526001808301805485519281161561010002600019011696909604601f81018690048602820186019094528381529094919385810193919291908301828280156104ff5780601f106104d4576101008083540402835291602001916104ff565b820191906000526020600020905b8154815290600101906020018083116104e257829003601f168201915b505050918352505060029182015460209182015233600090815291815260408083208984528252909120825181558282015180519394508493919261054c926001850192909101906107bc565b506040918201516002918201553360009081526001602081815284832080548084018255908452818420018a90556001600160a01b038916835292835283822089835290925291822082815591906105a690830182610848565b506000600291909101819055805b6001600160a01b03861660009081526001602052604090205481101561063057808514156105e157610628565b6001600160a01b038616600090815260016020526040902080548391908390811061060857fe5b600091825260208083209091015483546001810185559383529120909101555b6001016105b4565b506001600160a01b038516600090815260016020526040902081546106579190839061088f565b50506040908101516001600160a01b0390941660009081526020819052208054909301909255505050565b33600081815260208190526040808220805490839055905190929183156108fc02918491818181858888f193505050501580156106c3573d6000803e3d6000fd5b5050565b600260208181526000938452604080852082529284529282902080546001808301805486519281161561010002600019011694909404601f8101879004870282018701909552848152909491939092918301828280156107685780601f1061073d57610100808354040283529160200191610768565b820191906000526020600020905b81548152906001019060200180831161074b57829003601f168201915b5050505050908060020154905083565b6001602052816000526040600020818154811061079457600080fd5b90600052602060002001600091509150505481565b3360009081526001602052604090205490565b828054600181600116156101000203166002900490600052602060002090601f0160209004810192826107f25760008555610838565b82601f1061080b57805160ff1916838001178555610838565b82800160010185558215610838579182015b8281111561083857825182559160200191906001019061081d565b506108449291506108cf565b5090565b50805460018160011615610100020316600290046000825580601f1061086e575061088c565b601f01602090049060005260206000209081019061088c91906108cf565b50565b8280548282559060005260206000209081019282156108385760005260206000209182015b828111156108385782548255916001019190600101906108b4565b5b8082111561084457600081556001016108d056fea264697066735822122093f4356e4106e090be3925ef4b980b9269f0b92592482295a67c76bce0cbe9ee64736f6c63430007060033",
  "immutableReferences": {},
  "source": "// SPDX-License-Identifier: MIT\npragma solidity >=0.6.0 <0.9.0;\n\ncontract ImageManager {\n    struct Image {\n        bytes32 id;\n        string url;\n        uint256 price;\n    }\n\n    mapping(address => uint) pendingWithdrawals;\n    mapping(address => bytes32[]) public imagesToAccount;\n    mapping(address => mapping(bytes32 => Image)) public images;\n\n    function addImage(string memory _url) public payable {\n        bytes32 imageId = keccak256(abi.encode(_url, msg.value, msg.sender, blockhash(block.number)));\n\n        images[msg.sender][imageId] = Image(imageId, _url, msg.value);\n        imagesToAccount[msg.sender].push(imageId);\n    }\n\n    function buyImage(bytes32 _imageId, address _sellerAddress) public payable {\n        uint foundImageIndex = 0;\n        bool foundImage = false;\n\n        for (uint i = 0; i < imagesToAccount[_sellerAddress].length; i++) {\n            bytes32 currentImageId = imagesToAccount[_sellerAddress][i];\n\n            if (currentImageId == _imageId) {\n                foundImageIndex = i;\n                foundImage = true;\n            }\n        }\n\n        require(foundImage == true, \"Image not found!\");\n\n        // move image to buyer\n        Image memory imageBought = images[_sellerAddress][_imageId];\n        images[msg.sender][_imageId] = imageBought;\n        imagesToAccount[msg.sender].push(_imageId);\n\n        // remove the image from the seller\n        delete images[_sellerAddress][_imageId];\n\n        // update the new images account of the seller\n        bytes32[] storage newImagesToAccount;\n        for (uint i = 0; i < imagesToAccount[_sellerAddress].length; i++) {\n            if (foundImageIndex == i) {\n                continue;\n            }\n\n            newImagesToAccount.push(imagesToAccount[_sellerAddress][i]);\n        }\n        imagesToAccount[_sellerAddress] = newImagesToAccount;\n\n        // add a pending withdraw for seller\n        pendingWithdrawals[_sellerAddress] += imageBought.price;\n    }\n\n    function withdraw() public {\n        uint amount = pendingWithdrawals[msg.sender];\n        pendingWithdrawals[msg.sender] = 0;\n        msg.sender.transfer(amount);\n    }\n\n    function getImagesCountForAccount() public view returns (uint imageCount) {\n        return imagesToAccount[msg.sender].length;\n    }\n}\n",
  "sourcePath": "/Users/kyosifov/learning-projects/ethereum-learning/contracts/ImageManager.sol",
  "compiler": {
    "name": "solc",
    "version": "0.7.6+commit.7338295f.Emscripten.clang"
  },
  "schemaVersion": "3.3.4",
  "updatedAt": "2021-03-21T17:31:42.516Z",
  "networkType": "ethereum",
  "devdoc": {
    "kind": "dev",
    "methods": {},
    "version": 1
  },
  "userdoc": {
    "kind": "user",
    "methods": {},
    "version": 1
  }
}