{
  "contractName": "ImageManager",
  "abi": [
    {
      "inputs": [
        {
          "internalType": "address",
          "name": "",
          "type": "address"
        },
        {
          "internalType": "bytes32",
          "name": "",
          "type": "bytes32"
        }
      ],
      "name": "images",
      "outputs": [
        {
          "internalType": "bytes32",
          "name": "id",
          "type": "bytes32"
        },
        {
          "internalType": "string",
          "name": "url",
          "type": "string"
        },
        {
          "internalType": "uint256",
          "name": "price",
          "type": "uint256"
        }
      ],
      "stateMutability": "view",
      "type": "function",
      "constant": true
    },
    {
      "inputs": [
        {
          "internalType": "address",
          "name": "",
          "type": "address"
        },
        {
          "internalType": "uint256",
          "name": "",
          "type": "uint256"
        }
      ],
      "name": "imagesToAccount",
      "outputs": [
        {
          "internalType": "bytes32",
          "name": "",
          "type": "bytes32"
        }
      ],
      "stateMutability": "view",
      "type": "function",
      "constant": true
    },
    {
      "inputs": [
        {
          "internalType": "uint256",
          "name": "_price",
          "type": "uint256"
        },
        {
          "internalType": "string",
          "name": "_url",
          "type": "string"
        }
      ],
      "name": "addImage",
      "outputs": [],
      "stateMutability": "nonpayable",
      "type": "function"
    },
    {
      "inputs": [
        {
          "internalType": "bytes32",
          "name": "_imageId",
          "type": "bytes32"
        },
        {
          "internalType": "address",
          "name": "_sellerAddress",
          "type": "address"
        }
      ],
      "name": "buyImage",
      "outputs": [],
      "stateMutability": "payable",
      "type": "function",
      "payable": true
    },
    {
      "inputs": [],
      "name": "withdraw",
      "outputs": [],
      "stateMutability": "nonpayable",
      "type": "function"
    },
    {
      "inputs": [],
      "name": "getImagesCountForAccount",
      "outputs": [
        {
          "internalType": "uint256",
          "name": "imageCount",
          "type": "uint256"
        }
      ],
      "stateMutability": "view",
      "type": "function",
      "constant": true
    }
  ],
  "bytecode": "0x608060405234801561001057600080fd5b5061099b806100206000396000f3fe6080604052600436106100555760003560e01c8063386daf911461005a5780633ccfd60b146100885780636b3392901461009d578063ab2258a21461015c578063ce889b9114610216578063dc2b216414610261575b600080fd5b6100866004803603604081101561007057600080fd5b50803590602001356001600160a01b0316610276565b005b34801561009457600080fd5b506100866105ae565b3480156100a957600080fd5b506100d6600480360360408110156100c057600080fd5b506001600160a01b0381351690602001356105f3565b6040518084815260200180602001838152602001828103825284818151815260200191508051906020019080838360005b8381101561011f578181015183820152602001610107565b50505050905090810190601f16801561014c5780820380516001836020036101000a031916815260200191505b5094505050505060405180910390f35b34801561016857600080fd5b506100866004803603604081101561017f57600080fd5b813591908101906040810160208201356401000000008111156101a157600080fd5b8201836020820111156101b357600080fd5b803590602001918460018302840111640100000000831117156101d557600080fd5b91908080601f0160208091040260200160405190810160405280939291908181526020018383808284376000920191909152509295506106a4945050505050565b34801561022257600080fd5b5061024f6004803603604081101561023957600080fd5b506001600160a01b0381351690602001356107cf565b60408051918252519081900360200190f35b34801561026d57600080fd5b5061024f610800565b60008060005b6001600160a01b0384166000908152600160205260409020548110156102e6576001600160a01b03841660009081526001602052604081208054839081106102c057fe5b90600052602060002001549050858114156102dd57819350600192505b5060010161027c565b50600181151514610331576040805162461bcd60e51b815260206004820152601060248201526f496d616765206e6f7420666f756e642160801b604482015290519081900360640190fd5b6001600160a01b038316600090815260026020818152604080842088855282528084208151606081018352815481526001808301805485519281161561010002600019011696909604601f81018690048602820186019094528381529094919385810193919291908301828280156103ea5780601f106103bf576101008083540402835291602001916103ea565b820191906000526020600020905b8154815290600101906020018083116103cd57829003601f168201915b505050505081526020016002820154815250509050348160400151146104415760405162461bcd60e51b815260040180806020018281038252602a81526020018061093c602a913960400191505060405180910390fd5b3360009081526002602090815260408083208884528252909120825181558183015180518493610478926001850192910190610813565b506040918201516002918201553360009081526001602081815284832080548084018255908452818420018a90556001600160a01b038916835292835283822089835290925291822082815591906104d29083018261089f565b506000600291909101819055805b6001600160a01b03861660009081526001602052604090205481101561055c578085141561050d57610554565b6001600160a01b038616600090815260016020526040902080548391908390811061053457fe5b600091825260208083209091015483546001810185559383529120909101555b6001016104e0565b506001600160a01b03851660009081526001602052604090208154610583919083906108e6565b50506040908101516001600160a01b0390941660009081526020819052208054909301909255505050565b33600081815260208190526040808220805490839055905190929183156108fc02918491818181858888f193505050501580156105ef573d6000803e3d6000fd5b5050565b600260208181526000938452604080852082529284529282902080546001808301805486519281161561010002600019011694909404601f8101879004870282018701909552848152909491939092918301828280156106945780601f1061066957610100808354040283529160200191610694565b820191906000526020600020905b81548152906001019060200180831161067757829003601f168201915b5050505050908060020154905083565b600081833343406040516020018080602001858152602001846001600160a01b03168152602001838152602001828103825286818151815260200191508051906020019080838360005b838110156107065781810151838201526020016106ee565b50505050905090810190601f1680156107335780820380516001836020036101000a031916815260200191505b5060408051601f1981840301815282825280516020918201206060840183528084528184018c81528385018e9052336000908152600284528481208382528452939093208451815592518051919b509399509197506107a096506001880195509190910192509050610813565b506040918201516002909101553360009081526001602081815292822080549182018155825291902001555050565b600160205281600052604060002081815481106107eb57600080fd5b90600052602060002001600091509150505481565b3360009081526001602052604090205490565b828054600181600116156101000203166002900490600052602060002090601f016020900481019282610849576000855561088f565b82601f1061086257805160ff191683800117855561088f565b8280016001018555821561088f579182015b8281111561088f578251825591602001919060010190610874565b5061089b929150610926565b5090565b50805460018160011615610100020316600290046000825580601f106108c557506108e3565b601f0160209004906000526020600020908101906108e39190610926565b50565b82805482825590600052602060002090810192821561088f5760005260206000209182015b8281111561088f57825482559160010191906001019061090b565b5b8082111561089b576000815560010161092756fe596f75206d7573742070617920746865206578616374207072696365206f662074686520696d61676521a2646970667358221220ed04567c3e3025b74d6f51cf003bda0622c13fa9cd400a976e7ca3f3c3e32d1864736f6c63430007060033",
  "immutableReferences": {},
  "source": "// SPDX-License-Identifier: MIT\npragma solidity >=0.6.0 <0.9.0;\n\ncontract ImageManager {\n    struct Image {\n        bytes32 id;\n        string url;\n        uint256 price;\n    }\n\n    mapping(address => uint) pendingWithdrawals;\n    mapping(address => bytes32[]) public imagesToAccount;\n    mapping(address => mapping(bytes32 => Image)) public images;\n\n    function addImage(uint256 _price, string memory _url) public {\n        bytes32 imageId = keccak256(abi.encode(_url, _price, msg.sender, blockhash(block.number)));\n\n        images[msg.sender][imageId] = Image(imageId, _url, _price);\n        imagesToAccount[msg.sender].push(imageId);\n    }\n\n    function buyImage(bytes32 _imageId, address _sellerAddress) public payable {\n        uint foundImageIndex = 0;\n        bool foundImage = false;\n\n        for (uint i = 0; i < imagesToAccount[_sellerAddress].length; i++) {\n            bytes32 currentImageId = imagesToAccount[_sellerAddress][i];\n\n            if (currentImageId == _imageId) {\n                foundImageIndex = i;\n                foundImage = true;\n            }\n        }\n\n        require(foundImage == true, \"Image not found!\");\n\n        // move image to buyer\n        Image memory imageBought = images[_sellerAddress][_imageId];\n\n        // assert that the price paid is the exact one\n        require(imageBought.price == msg.value, \"You must pay the exact price of the image!\");\n\n        images[msg.sender][_imageId] = imageBought;\n        imagesToAccount[msg.sender].push(_imageId);\n\n        // remove the image from the seller\n        delete images[_sellerAddress][_imageId];\n\n        // update the new images account of the seller\n        bytes32[] storage newImagesToAccount;\n        for (uint i = 0; i < imagesToAccount[_sellerAddress].length; i++) {\n            if (foundImageIndex == i) {\n                continue;\n            }\n\n            newImagesToAccount.push(imagesToAccount[_sellerAddress][i]);\n        }\n        imagesToAccount[_sellerAddress] = newImagesToAccount;\n\n        // add a pending withdraw for seller\n        pendingWithdrawals[_sellerAddress] += imageBought.price;\n    }\n\n    function withdraw() public {\n        uint amount = pendingWithdrawals[msg.sender];\n        pendingWithdrawals[msg.sender] = 0;\n        msg.sender.transfer(amount);\n    }\n\n    function getImagesCountForAccount() public view returns (uint imageCount) {\n        return imagesToAccount[msg.sender].length;\n    }\n}\n",
  "sourcePath": "/Users/kyosifov/learning-projects/ethereum-learning/contracts/ImageManager.sol",
  "compiler": {
    "name": "solc",
    "version": "0.7.6+commit.7338295f.Emscripten.clang"
  },
  "schemaVersion": "3.3.4",
  "updatedAt": "2021-03-23T19:00:46.464Z",
  "networkType": "ethereum",
  "devdoc": {
    "kind": "dev",
    "methods": {},
    "version": 1
  },
  "userdoc": {
    "kind": "user",
    "methods": {},
    "version": 1
  }
}