{
  "contractName": "TodoList",
  "abi": [
    {
      "inputs": [],
      "payable": false,
      "stateMutability": "nonpayable",
      "type": "constructor"
    },
    {
      "constant": true,
      "inputs": [],
      "name": "count",
      "outputs": [
        {
          "internalType": "uint256",
          "name": "",
          "type": "uint256"
        }
      ],
      "payable": false,
      "stateMutability": "view",
      "type": "function"
    },
    {
      "constant": true,
      "inputs": [
        {
          "internalType": "uint256",
          "name": "",
          "type": "uint256"
        }
      ],
      "name": "tasks",
      "outputs": [
        {
          "internalType": "uint256",
          "name": "id",
          "type": "uint256"
        },
        {
          "internalType": "string",
          "name": "title",
          "type": "string"
        },
        {
          "internalType": "string",
          "name": "text",
          "type": "string"
        },
        {
          "internalType": "bool",
          "name": "completed",
          "type": "bool"
        }
      ],
      "payable": false,
      "stateMutability": "view",
      "type": "function"
    },
    {
      "constant": false,
      "inputs": [
        {
          "internalType": "string",
          "name": "title",
          "type": "string"
        },
        {
          "internalType": "string",
          "name": "text",
          "type": "string"
        }
      ],
      "name": "createTask",
      "outputs": [],
      "payable": true,
      "stateMutability": "payable",
      "type": "function"
    }
  ],
  "bytecode": "0x60806040526000805534801561001457600080fd5b50610067604051806040016040528060078152602001664861636b65726160c81b8152506040518060400160405280600b81526020016a68656c6c6f20746865726560a81b81525061006c60201b60201c565b610197565b6000805460019081018083556040805160808101825282815260208082018881528284018890526060830187905293865284815291909420845181559151805192936100c0939085019291909101906100fc565b50604082015180516100dc9160028401916020909101906100fc565b50606091909101516003909101805460ff19169115159190911790555050565b828054600181600116156101000203166002900490600052602060002090601f016020900481019282601f1061013d57805160ff191683800117855561016a565b8280016001018555821561016a579182015b8281111561016a57825182559160200191906001019061014f565b5061017692915061017a565b5090565b61019491905b808211156101765760008155600101610180565b90565b610550806101a66000396000f3fe6080604052600436106100345760003560e01c806306661abd14610039578063292a4585146100605780638d9776721461018f575b600080fd5b34801561004557600080fd5b5061004e6102a9565b60408051918252519081900360200190f35b61018d6004803603604081101561007657600080fd5b81019060208101813564010000000081111561009157600080fd5b8201836020820111156100a357600080fd5b803590602001918460018302840111640100000000831117156100c557600080fd5b91908080601f016020809104026020016040519081016040528093929190818152602001838380828437600092019190915250929594936020810193503591505064010000000081111561011857600080fd5b82018360208201111561012a57600080fd5b8035906020019184600183028401116401000000008311171561014c57600080fd5b91908080601f0160208091040260200160405190810160405280939291908181526020018383808284376000920191909152509295506102af945050505050565b005b34801561019b57600080fd5b506101b9600480360360208110156101b257600080fd5b503561033f565b60405180858152602001806020018060200184151515158152602001838103835286818151815260200191508051906020019080838360005b8381101561020a5781810151838201526020016101f2565b50505050905090810190601f1680156102375780820380516001836020036101000a031916815260200191505b50838103825285518152855160209182019187019080838360005b8381101561026a578181015183820152602001610252565b50505050905090810190601f1680156102975780820380516001836020036101000a031916815260200191505b50965050505050505060405180910390f35b60005481565b60008054600190810180835560408051608081018252828152602080820188815282840188905260608301879052938652848152919094208451815591518051929361030393908501929190910190610480565b506040820151805161031f916002840191602090910190610480565b50606091909101516003909101805460ff19169115159190911790555050565b600160208181526000928352604092839020805481840180548651600296821615610100026000190190911695909504601f810185900485028601850190965285855290949193929091908301828280156103db5780601f106103b0576101008083540402835291602001916103db565b820191906000526020600020905b8154815290600101906020018083116103be57829003601f168201915b50505060028085018054604080516020601f600019610100600187161502019094169590950492830185900485028101850190915281815295969594509092509083018282801561046d5780601f106104425761010080835404028352916020019161046d565b820191906000526020600020905b81548152906001019060200180831161045057829003601f168201915b5050506003909301549192505060ff1684565b828054600181600116156101000203166002900490600052602060002090601f016020900481019282601f106104c157805160ff19168380011785556104ee565b828001600101855582156104ee579182015b828111156104ee5782518255916020019190600101906104d3565b506104fa9291506104fe565b5090565b61051891905b808211156104fa5760008155600101610504565b9056fea265627a7a72315820bd07603d9955d130ea7219f619cd5c6ede155d4aed6d1544f23ea772982acee864736f6c63430005100032",
  "source": "pragma solidity ^0.5;\n\ncontract TodoList {\n    uint public count = 0;\n\n    struct Task {\n        uint id;\n        string title;\n        string text;\n        bool completed;\n    }\n\n    mapping(uint => Task) public tasks;\n\n    constructor() public {\n        createTask(\"Hackera\", \"hello there\");\n    }\n\n    function createTask(string memory title, string memory text) public payable {\n        count++;\n        tasks[count] = Task(count, title, text, false);\n    }\n}\n",
  "sourcePath": "/home/kyosifov/projects/ethereum-learning/contracts/TodoList.sol",
  "compiler": {
    "name": "solc",
    "version": "0.5.16+commit.9c3226ce.Emscripten.clang"
  },
  "schemaVersion": "3.3.4",
  "updatedAt": "2021-02-24T18:30:05.385Z",
  "devdoc": {
    "methods": {}
  },
  "userdoc": {
    "methods": {}
  }
}